{
  "contractName": "Value",
  "abi": [
    {
      "payable": true,
      "stateMutability": "payable",
      "type": "fallback"
    },
    {
      "constant": false,
      "inputs": [],
      "name": "increaseValue",
      "outputs": [],
      "payable": false,
      "stateMutability": "nonpayable",
      "type": "function"
    },
    {
      "constant": true,
      "inputs": [],
      "name": "getValue",
      "outputs": [
        {
          "name": "",
          "type": "uint256"
        }
      ],
      "payable": false,
      "stateMutability": "view",
      "type": "function"
    }
  ],
  "bytecode": "0x608060405234801561001057600080fd5b5060d18061001f6000396000f3006080604052600436106049576000357c0100000000000000000000000000000000000000000000000000000000900463ffffffff1680632096525514605257806340fc6a9614607a575b60008081905550005b348015605d57600080fd5b506064608e565b6040518082815260200191505060405180910390f35b348015608557600080fd5b50608c6097565b005b60008054905090565b6001600054016000819055505600a165627a7a7230582092c02db8672fded72608050376534581b68dd446c47fcaeeaea424ccc8810ee10029",
  "source": "pragma solidity ^0.4.24;\n\ncontract Value {\n\tuint256 private value;\n\n\tfunction() public payable { // Contract can receive ether.\n\t\tvalue = 0;\n\t}\n\n\tfunction increaseValue() public {\n\t\tvalue = value + 1;\n\t}\n\n\tfunction getValue() public view returns (uint256) {\n\t\treturn value;\n\t}\n}\n",
  "sourcePath": "/home/mateusz/WebstormProjects/autorefill_simplified/contracts/Value.sol",
  "compiler": {
    "name": "solc",
    "version": "0.4.24+commit.e67f0147.Emscripten.clang"
  },
  "schemaVersion": "2.0.1",
  "updatedAt": "2019-02-06T18:55:23.965Z"
}